{
  "_format": "hh-sol-artifact-1",
  "contractName": "NFTMarketplace",
  "sourceName": "contracts/nft-marketplace.sol",
  "abi": [
    {
      "inputs": [],
      "stateMutability": "nonpayable",
      "type": "constructor"
    },
    {
      "anonymous": false,
      "inputs": [
        {
          "indexed": true,
          "internalType": "address",
          "name": "owner",
          "type": "address"
        },
        {
          "indexed": true,
          "internalType": "address",
          "name": "approved",
          "type": "address"
        },
        {
          "indexed": true,
          "internalType": "uint256",
          "name": "tokenId",
          "type": "uint256"
        }
      ],
      "name": "Approval",
      "type": "event"
    },
    {
      "anonymous": false,
      "inputs": [
        {
          "indexed": true,
          "internalType": "address",
          "name": "owner",
          "type": "address"
        },
        {
          "indexed": true,
          "internalType": "address",
          "name": "operator",
          "type": "address"
        },
        {
          "indexed": false,
          "internalType": "bool",
          "name": "approved",
          "type": "bool"
        }
      ],
      "name": "ApprovalForAll",
      "type": "event"
    },
    {
      "anonymous": false,
      "inputs": [
        {
          "indexed": true,
          "internalType": "uint256",
          "name": "tokenId",
          "type": "uint256"
        },
        {
          "indexed": false,
          "internalType": "address",
          "name": "seller",
          "type": "address"
        },
        {
          "indexed": false,
          "internalType": "address",
          "name": "owner",
          "type": "address"
        },
        {
          "indexed": false,
          "internalType": "uint256",
          "name": "price",
          "type": "uint256"
        },
        {
          "indexed": false,
          "internalType": "bool",
          "name": "sold",
          "type": "bool"
        }
      ],
      "name": "MarketItemEvent",
      "type": "event"
    },
    {
      "anonymous": false,
      "inputs": [
        {
          "indexed": true,
          "internalType": "address",
          "name": "from",
          "type": "address"
        },
        {
          "indexed": true,
          "internalType": "address",
          "name": "to",
          "type": "address"
        },
        {
          "indexed": true,
          "internalType": "uint256",
          "name": "tokenId",
          "type": "uint256"
        }
      ],
      "name": "Transfer",
      "type": "event"
    },
    {
      "inputs": [
        {
          "internalType": "address",
          "name": "to",
          "type": "address"
        },
        {
          "internalType": "uint256",
          "name": "tokenId",
          "type": "uint256"
        }
      ],
      "name": "approve",
      "outputs": [],
      "stateMutability": "nonpayable",
      "type": "function"
    },
    {
      "inputs": [
        {
          "internalType": "address",
          "name": "owner",
          "type": "address"
        }
      ],
      "name": "balanceOf",
      "outputs": [
        {
          "internalType": "uint256",
          "name": "",
          "type": "uint256"
        }
      ],
      "stateMutability": "view",
      "type": "function"
    },
    {
      "inputs": [
        {
          "internalType": "string",
          "name": "_tokenURI",
          "type": "string"
        },
        {
          "internalType": "uint256",
          "name": "price",
          "type": "uint256"
        }
      ],
      "name": "createToken",
      "outputs": [
        {
          "internalType": "uint256",
          "name": "",
          "type": "uint256"
        }
      ],
      "stateMutability": "payable",
      "type": "function"
    },
    {
      "inputs": [],
      "name": "fetchItemsListed",
      "outputs": [
        {
          "components": [
            {
              "internalType": "uint256",
              "name": "tokenId",
              "type": "uint256"
            },
            {
              "internalType": "address payable",
              "name": "seller",
              "type": "address"
            },
            {
              "internalType": "address payable",
              "name": "owner",
              "type": "address"
            },
            {
              "internalType": "uint256",
              "name": "price",
              "type": "uint256"
            },
            {
              "internalType": "bool",
              "name": "sold",
              "type": "bool"
            }
          ],
          "internalType": "struct NFTMarketplace.MarketItem[]",
          "name": "",
          "type": "tuple[]"
        }
      ],
      "stateMutability": "view",
      "type": "function"
    },
    {
      "inputs": [],
      "name": "fetchMarketItems",
      "outputs": [
        {
          "components": [
            {
              "internalType": "uint256",
              "name": "tokenId",
              "type": "uint256"
            },
            {
              "internalType": "address payable",
              "name": "seller",
              "type": "address"
            },
            {
              "internalType": "address payable",
              "name": "owner",
              "type": "address"
            },
            {
              "internalType": "uint256",
              "name": "price",
              "type": "uint256"
            },
            {
              "internalType": "bool",
              "name": "sold",
              "type": "bool"
            }
          ],
          "internalType": "struct NFTMarketplace.MarketItem[]",
          "name": "",
          "type": "tuple[]"
        }
      ],
      "stateMutability": "view",
      "type": "function"
    },
    {
      "inputs": [],
      "name": "fetchMyNFTs",
      "outputs": [
        {
          "components": [
            {
              "internalType": "uint256",
              "name": "tokenId",
              "type": "uint256"
            },
            {
              "internalType": "address payable",
              "name": "seller",
              "type": "address"
            },
            {
              "internalType": "address payable",
              "name": "owner",
              "type": "address"
            },
            {
              "internalType": "uint256",
              "name": "price",
              "type": "uint256"
            },
            {
              "internalType": "bool",
              "name": "sold",
              "type": "bool"
            }
          ],
          "internalType": "struct NFTMarketplace.MarketItem[]",
          "name": "",
          "type": "tuple[]"
        }
      ],
      "stateMutability": "view",
      "type": "function"
    },
    {
      "inputs": [
        {
          "internalType": "uint256",
          "name": "tokenId",
          "type": "uint256"
        }
      ],
      "name": "getApproved",
      "outputs": [
        {
          "internalType": "address",
          "name": "",
          "type": "address"
        }
      ],
      "stateMutability": "view",
      "type": "function"
    },
    {
      "inputs": [],
      "name": "getListingPrice",
      "outputs": [
        {
          "internalType": "uint256",
          "name": "",
          "type": "uint256"
        }
      ],
      "stateMutability": "view",
      "type": "function"
    },
    {
      "inputs": [
        {
          "internalType": "address",
          "name": "owner",
          "type": "address"
        },
        {
          "internalType": "address",
          "name": "operator",
          "type": "address"
        }
      ],
      "name": "isApprovedForAll",
      "outputs": [
        {
          "internalType": "bool",
          "name": "",
          "type": "bool"
        }
      ],
      "stateMutability": "view",
      "type": "function"
    },
    {
      "inputs": [],
      "name": "name",
      "outputs": [
        {
          "internalType": "string",
          "name": "",
          "type": "string"
        }
      ],
      "stateMutability": "view",
      "type": "function"
    },
    {
      "inputs": [
        {
          "internalType": "uint256",
          "name": "tokenId",
          "type": "uint256"
        }
      ],
      "name": "ownerOf",
      "outputs": [
        {
          "internalType": "address",
          "name": "",
          "type": "address"
        }
      ],
      "stateMutability": "view",
      "type": "function"
    },
    {
      "inputs": [
        {
          "internalType": "uint256",
          "name": "tokenId",
          "type": "uint256"
        }
      ],
      "name": "purchase",
      "outputs": [],
      "stateMutability": "payable",
      "type": "function"
    },
    {
      "inputs": [
        {
          "internalType": "address",
          "name": "from",
          "type": "address"
        },
        {
          "internalType": "address",
          "name": "to",
          "type": "address"
        },
        {
          "internalType": "uint256",
          "name": "tokenId",
          "type": "uint256"
        }
      ],
      "name": "safeTransferFrom",
      "outputs": [],
      "stateMutability": "nonpayable",
      "type": "function"
    },
    {
      "inputs": [
        {
          "internalType": "address",
          "name": "from",
          "type": "address"
        },
        {
          "internalType": "address",
          "name": "to",
          "type": "address"
        },
        {
          "internalType": "uint256",
          "name": "tokenId",
          "type": "uint256"
        },
        {
          "internalType": "bytes",
          "name": "data",
          "type": "bytes"
        }
      ],
      "name": "safeTransferFrom",
      "outputs": [],
      "stateMutability": "nonpayable",
      "type": "function"
    },
    {
      "inputs": [
        {
          "internalType": "uint256",
          "name": "tokenId",
          "type": "uint256"
        },
        {
          "internalType": "uint256",
          "name": "price",
          "type": "uint256"
        }
      ],
      "name": "sellToken",
      "outputs": [],
      "stateMutability": "payable",
      "type": "function"
    },
    {
      "inputs": [
        {
          "internalType": "address",
          "name": "operator",
          "type": "address"
        },
        {
          "internalType": "bool",
          "name": "approved",
          "type": "bool"
        }
      ],
      "name": "setApprovalForAll",
      "outputs": [],
      "stateMutability": "nonpayable",
      "type": "function"
    },
    {
      "inputs": [
        {
          "internalType": "bytes4",
          "name": "interfaceId",
          "type": "bytes4"
        }
      ],
      "name": "supportsInterface",
      "outputs": [
        {
          "internalType": "bool",
          "name": "",
          "type": "bool"
        }
      ],
      "stateMutability": "view",
      "type": "function"
    },
    {
      "inputs": [],
      "name": "symbol",
      "outputs": [
        {
          "internalType": "string",
          "name": "",
          "type": "string"
        }
      ],
      "stateMutability": "view",
      "type": "function"
    },
    {
      "inputs": [
        {
          "internalType": "uint256",
          "name": "tokenId",
          "type": "uint256"
        }
      ],
      "name": "tokenURI",
      "outputs": [
        {
          "internalType": "string",
          "name": "",
          "type": "string"
        }
      ],
      "stateMutability": "view",
      "type": "function"
    },
    {
      "inputs": [
        {
          "internalType": "address",
          "name": "from",
          "type": "address"
        },
        {
          "internalType": "address",
          "name": "to",
          "type": "address"
        },
        {
          "internalType": "uint256",
          "name": "tokenId",
          "type": "uint256"
        }
      ],
      "name": "transferFrom",
      "outputs": [],
      "stateMutability": "nonpayable",
      "type": "function"
    },
    {
      "inputs": [
        {
          "internalType": "uint256",
          "name": "_listingPrice",
          "type": "uint256"
        }
      ],
      "name": "updateListingPrice",
      "outputs": [],
      "stateMutability": "payable",
      "type": "function"
    }
  ],
  "bytecode": "0x60806040526658d15e17628000600a553480156200001c57600080fd5b506040518060400160405280601381526020017f4e4654204d657461766572736520546f6b656e000000000000000000000000008152506040518060400160405280600381526020017f4e4d54000000000000000000000000000000000000000000000000000000000081525081600090816200009a919062000355565b508060019081620000ac919062000355565b5050503373ffffffffffffffffffffffffffffffffffffffff16600960009054906101000a905050506200043c565b600081519050919050565b7f4e487b7100000000000000000000000000000000000000000000000000000000600052604160045260246000fd5b7f4e487b7100000000000000000000000000000000000000000000000000000000600052602260045260246000fd5b600060028204905060018216806200015d57607f821691505b60208210810362000173576200017262000115565b5b50919050565b60008190508160005260206000209050919050565b60006020601f8301049050919050565b600082821b905092915050565b600060088302620001dd7fffffffffffffffffffffffffffffffffffffffffffffffffffffffffffffffff826200019e565b620001e986836200019e565b95508019841693508086168417925050509392505050565b6000819050919050565b6000819050919050565b600062000236620002306200022a8462000201565b6200020b565b62000201565b9050919050565b6000819050919050565b620002528362000215565b6200026a62000261826200023d565b848454620001ab565b825550505050565b600090565b6200028162000272565b6200028e81848462000247565b505050565b5b81811015620002b657620002aa60008262000277565b60018101905062000294565b5050565b601f8211156200030557620002cf8162000179565b620002da846200018e565b81016020851015620002ea578190505b62000302620002f9856200018e565b83018262000293565b50505b505050565b600082821c905092915050565b60006200032a600019846008026200030a565b1980831691505092915050565b600062000345838362000317565b9150826002028217905092915050565b6200036082620000db565b67ffffffffffffffff8111156200037c576200037b620000e6565b5b62000388825462000144565b62000395828285620002ba565b600060209050601f831160018114620003cd5760008415620003b8578287015190505b620003c4858262000337565b86555062000434565b601f198416620003dd8662000179565b60005b828110156200040757848901518255600182019150602085019450602081019050620003e0565b8683101562000427578489015162000423601f89168262000317565b8355505b6001600288020188555050505b505050505050565b6144e7806200044c6000396000f3fe60806040526004361061012a5760003560e01c806345f8fa80116100ab578063a22cb4651161006f578063a22cb465146103ec578063ae677aa314610415578063b88d4fde14610431578063c87b56dd1461045a578063e985e9c514610497578063efef39a1146104d45761012a565b806345f8fa80146102ec5780636352211e1461031757806370a082311461035457806372b3b6201461039157806395d89b41146103c15761012a565b806312e85585116100f257806312e85585146102285780631897bcf314610253578063202e37401461026f57806323b872dd1461029a57806342842e0e146102c35761012a565b806301ffc9a71461012f57806306fdde031461016c578063081812fc14610197578063095ea7b3146101d45780630f08efe0146101fd575b600080fd5b34801561013b57600080fd5b5061015660048036038101906101519190612c1b565b6104f0565b6040516101639190612c63565b60405180910390f35b34801561017857600080fd5b506101816105d2565b60405161018e9190612d0e565b60405180910390f35b3480156101a357600080fd5b506101be60048036038101906101b99190612d66565b610664565b6040516101cb9190612dd4565b60405180910390f35b3480156101e057600080fd5b506101fb60048036038101906101f69190612e1b565b6106aa565b005b34801561020957600080fd5b506102126107c1565b60405161021f9190612fb1565b60405180910390f35b34801561023457600080fd5b5061023d610a14565b60405161024a9190612fe2565b60405180910390f35b61026d60048036038101906102689190612ffd565b610a1e565b005b34801561027b57600080fd5b50610284610c52565b6040516102919190612fb1565b60405180910390f35b3480156102a657600080fd5b506102c160048036038101906102bc919061303d565b610f32565b005b3480156102cf57600080fd5b506102ea60048036038101906102e5919061303d565b610f92565b005b3480156102f857600080fd5b50610301610fb2565b60405161030e9190612fb1565b60405180910390f35b34801561032357600080fd5b5061033e60048036038101906103399190612d66565b611292565b60405161034b9190612dd4565b60405180910390f35b34801561036057600080fd5b5061037b60048036038101906103769190613090565b611318565b6040516103889190612fe2565b60405180910390f35b6103ab60048036038101906103a691906131f2565b6113cf565b6040516103b89190612fe2565b60405180910390f35b3480156103cd57600080fd5b506103d6611454565b6040516103e39190612d0e565b60405180910390f35b3480156103f857600080fd5b50610413600480360381019061040e919061327a565b6114e6565b005b61042f600480360381019061042a9190612d66565b6114fc565b005b34801561043d57600080fd5b506104586004803603810190610453919061335b565b611626565b005b34801561046657600080fd5b50610481600480360381019061047c9190612d66565b611688565b60405161048e9190612d0e565b60405180910390f35b3480156104a357600080fd5b506104be60048036038101906104b991906133de565b61179a565b6040516104cb9190612c63565b60405180910390f35b6104ee60048036038101906104e99190612d66565b61182e565b005b60007f80ac58cd000000000000000000000000000000000000000000000000000000007bffffffffffffffffffffffffffffffffffffffffffffffffffffffff1916827bffffffffffffffffffffffffffffffffffffffffffffffffffffffff191614806105bb57507f5b5e139f000000000000000000000000000000000000000000000000000000007bffffffffffffffffffffffffffffffffffffffffffffffffffffffff1916827bffffffffffffffffffffffffffffffffffffffffffffffffffffffff1916145b806105cb57506105ca82611aa5565b5b9050919050565b6060600080546105e19061344d565b80601f016020809104026020016040519081016040528092919081815260200182805461060d9061344d565b801561065a5780601f1061062f5761010080835404028352916020019161065a565b820191906000526020600020905b81548152906001019060200180831161063d57829003601f168201915b5050505050905090565b600061066f82611b0f565b6004600083815260200190815260200160002060009054906101000a900473ffffffffffffffffffffffffffffffffffffffff169050919050565b60006106b582611292565b90508073ffffffffffffffffffffffffffffffffffffffff168373ffffffffffffffffffffffffffffffffffffffff1603610725576040517f08c379a000000000000000000000000000000000000000000000000000000000815260040161071c906134f0565b60405180910390fd5b8073ffffffffffffffffffffffffffffffffffffffff16610744611b5a565b73ffffffffffffffffffffffffffffffffffffffff16148061077357506107728161076d611b5a565b61179a565b5b6107b2576040517f08c379a00000000000000000000000000000000000000000000000000000000081526004016107a990613582565b60405180910390fd5b6107bc8383611b62565b505050565b606060006107cf6007611c1b565b905060006107dd6008611c1b565b826107e891906135d1565b90506000808267ffffffffffffffff811115610807576108066130c7565b5b60405190808252806020026020018201604052801561084057816020015b61082d612b52565b8152602001906001900390816108255790505b50905060005b83811015610a09573073ffffffffffffffffffffffffffffffffffffffff16600b60006001846108769190613605565b815260200190815260200160002060020160009054906101000a900473ffffffffffffffffffffffffffffffffffffffff1673ffffffffffffffffffffffffffffffffffffffff16036109f657600b60006001836108d49190613605565b81526020019081526020016000206040518060a0016040529081600082015481526020016001820160009054906101000a900473ffffffffffffffffffffffffffffffffffffffff1673ffffffffffffffffffffffffffffffffffffffff1673ffffffffffffffffffffffffffffffffffffffff1681526020016002820160009054906101000a900473ffffffffffffffffffffffffffffffffffffffff1673ffffffffffffffffffffffffffffffffffffffff1673ffffffffffffffffffffffffffffffffffffffff168152602001600382015481526020016004820160009054906101000a900460ff1615151515815250508284815181106109db576109da613639565b5b60200260200101819052506001836109f39190613605565b92505b8080610a0190613668565b915050610846565b508094505050505090565b6000600a54905090565b3373ffffffffffffffffffffffffffffffffffffffff16600b600084815260200190815260200160002060020160009054906101000a900473ffffffffffffffffffffffffffffffffffffffff1673ffffffffffffffffffffffffffffffffffffffff1614610ac2576040517f08c379a0000000000000000000000000000000000000000000000000000000008152600401610ab990613722565b60405180910390fd5b600a543414610b06576040517f08c379a0000000000000000000000000000000000000000000000000000000008152600401610afd906137b4565b60405180910390fd5b33600b600084815260200190815260200160002060010160006101000a81548173ffffffffffffffffffffffffffffffffffffffff021916908373ffffffffffffffffffffffffffffffffffffffff16021790555080600b6000848152602001908152602001600020600301819055506000600b600084815260200190815260200160002060040160006101000a81548160ff02191690831515021790555030600b600084815260200190815260200160002060020160006101000a81548173ffffffffffffffffffffffffffffffffffffffff021916908373ffffffffffffffffffffffffffffffffffffffff160217905550610c046008611c29565b610c0f333084611c85565b817f4d9eb296843220178782df8b327fe4e98bf2932f09c3729440b8c17462aeb3b23330846000604051610c4694939291906137d4565b60405180910390a25050565b60606000610c606007611c1b565b905060008060005b83811015610d08573373ffffffffffffffffffffffffffffffffffffffff16600b6000600184610c989190613605565b815260200190815260200160002060020160009054906101000a900473ffffffffffffffffffffffffffffffffffffffff1673ffffffffffffffffffffffffffffffffffffffff1603610cf557600183610cf29190613605565b92505b8080610d0090613668565b915050610c68565b5060008267ffffffffffffffff811115610d2557610d246130c7565b5b604051908082528060200260200182016040528015610d5e57816020015b610d4b612b52565b815260200190600190039081610d435790505b50905060005b84811015610f27573373ffffffffffffffffffffffffffffffffffffffff16600b6000600184610d949190613605565b815260200190815260200160002060020160009054906101000a900473ffffffffffffffffffffffffffffffffffffffff1673ffffffffffffffffffffffffffffffffffffffff1603610f1457600b6000600183610df29190613605565b81526020019081526020016000206040518060a0016040529081600082015481526020016001820160009054906101000a900473ffffffffffffffffffffffffffffffffffffffff1673ffffffffffffffffffffffffffffffffffffffff1673ffffffffffffffffffffffffffffffffffffffff1681526020016002820160009054906101000a900473ffffffffffffffffffffffffffffffffffffffff1673ffffffffffffffffffffffffffffffffffffffff1673ffffffffffffffffffffffffffffffffffffffff168152602001600382015481526020016004820160009054906101000a900460ff161515151581525050828481518110610ef957610ef8613639565b5b6020026020010181905250600183610f119190613605565b92505b8080610f1f90613668565b915050610d64565b508094505050505090565b610f43610f3d611b5a565b82611f7e565b610f82576040517f08c379a0000000000000000000000000000000000000000000000000000000008152600401610f799061388b565b60405180910390fd5b610f8d838383611c85565b505050565b610fad83838360405180602001604052806000815250611626565b505050565b60606000610fc06007611c1b565b905060008060005b83811015611068573373ffffffffffffffffffffffffffffffffffffffff16600b6000600184610ff89190613605565b815260200190815260200160002060010160009054906101000a900473ffffffffffffffffffffffffffffffffffffffff1673ffffffffffffffffffffffffffffffffffffffff1603611055576001836110529190613605565b92505b808061106090613668565b915050610fc8565b5060008267ffffffffffffffff811115611085576110846130c7565b5b6040519080825280602002602001820160405280156110be57816020015b6110ab612b52565b8152602001906001900390816110a35790505b50905060005b84811015611287573373ffffffffffffffffffffffffffffffffffffffff16600b60006001846110f49190613605565b815260200190815260200160002060010160009054906101000a900473ffffffffffffffffffffffffffffffffffffffff1673ffffffffffffffffffffffffffffffffffffffff160361127457600b60006001836111529190613605565b81526020019081526020016000206040518060a0016040529081600082015481526020016001820160009054906101000a900473ffffffffffffffffffffffffffffffffffffffff1673ffffffffffffffffffffffffffffffffffffffff1673ffffffffffffffffffffffffffffffffffffffff1681526020016002820160009054906101000a900473ffffffffffffffffffffffffffffffffffffffff1673ffffffffffffffffffffffffffffffffffffffff1673ffffffffffffffffffffffffffffffffffffffff168152602001600382015481526020016004820160009054906101000a900460ff16151515158152505082848151811061125957611258613639565b5b60200260200101819052506001836112719190613605565b92505b808061127f90613668565b9150506110c4565b508094505050505090565b60008061129e83612013565b9050600073ffffffffffffffffffffffffffffffffffffffff168173ffffffffffffffffffffffffffffffffffffffff160361130f576040517f08c379a0000000000000000000000000000000000000000000000000000000008152600401611306906138f7565b60405180910390fd5b80915050919050565b60008073ffffffffffffffffffffffffffffffffffffffff168273ffffffffffffffffffffffffffffffffffffffff1603611388576040517f08c379a000000000000000000000000000000000000000000000000000000000815260040161137f90613989565b60405180910390fd5b600360008373ffffffffffffffffffffffffffffffffffffffff1673ffffffffffffffffffffffffffffffffffffffff168152602001908152602001600020549050919050565b600080835111611414576040517f08c379a000000000000000000000000000000000000000000000000000000000815260040161140b906139f5565b60405180910390fd5b61141e6007612050565b600061142a6007611c1b565b90506114363382612066565b6114408185612283565b61144a81846122f0565b8091505092915050565b6060600180546114639061344d565b80601f016020809104026020016040519081016040528092919081815260200182805461148f9061344d565b80156114dc5780601f106114b1576101008083540402835291602001916114dc565b820191906000526020600020905b8154815290600101906020018083116114bf57829003601f168201915b5050505050905090565b6114f86114f1611b5a565b83836124f3565b5050565b600960009054906101000a900473ffffffffffffffffffffffffffffffffffffffff1673ffffffffffffffffffffffffffffffffffffffff163373ffffffffffffffffffffffffffffffffffffffff161461158c576040517f08c379a000000000000000000000000000000000000000000000000000000000815260040161158390613a87565b60405180910390fd5b3373ffffffffffffffffffffffffffffffffffffffff16600960009054906101000a900473ffffffffffffffffffffffffffffffffffffffff1673ffffffffffffffffffffffffffffffffffffffff161461161c576040517f08c379a000000000000000000000000000000000000000000000000000000000815260040161161390613b19565b60405180910390fd5b80600a8190555050565b611637611631611b5a565b83611f7e565b611676576040517f08c379a000000000000000000000000000000000000000000000000000000000815260040161166d9061388b565b60405180910390fd5b6116828484848461265f565b50505050565b606061169382611b0f565b60006006600084815260200190815260200160002080546116b39061344d565b80601f01602080910402602001604051908101604052809291908181526020018280546116df9061344d565b801561172c5780601f106117015761010080835404028352916020019161172c565b820191906000526020600020905b81548152906001019060200180831161170f57829003601f168201915b50505050509050600061173d6126bb565b90506000815103611752578192505050611795565b60008251111561178757808260405160200161176f929190613b75565b60405160208183030381529060405292505050611795565b611790846126d2565b925050505b919050565b6000600560008473ffffffffffffffffffffffffffffffffffffffff1673ffffffffffffffffffffffffffffffffffffffff16815260200190815260200160002060008373ffffffffffffffffffffffffffffffffffffffff1673ffffffffffffffffffffffffffffffffffffffff16815260200190815260200160002060009054906101000a900460ff16905092915050565b6000600b600083815260200190815260200160002060030154905080341461188b576040517f08c379a000000000000000000000000000000000000000000000000000000000815260040161188290613c0b565b60405180910390fd5b33600b600084815260200190815260200160002060020160006101000a81548173ffffffffffffffffffffffffffffffffffffffff021916908373ffffffffffffffffffffffffffffffffffffffff1602179055506001600b600084815260200190815260200160002060040160006101000a81548160ff0219169083151502179055506000600b600084815260200190815260200160002060010160006101000a81548173ffffffffffffffffffffffffffffffffffffffff021916908373ffffffffffffffffffffffffffffffffffffffff16021790555061196f6008612050565b61197a303384611c85565b600960009054906101000a900473ffffffffffffffffffffffffffffffffffffffff1673ffffffffffffffffffffffffffffffffffffffff166108fc600a549081150290604051600060405180830381858888f193505050501580156119e4573d6000803e3d6000fd5b50600b600083815260200190815260200160002060010160009054906101000a900473ffffffffffffffffffffffffffffffffffffffff1673ffffffffffffffffffffffffffffffffffffffff166108fc349081150290604051600060405180830381858888f19350505050158015611a61573d6000803e3d6000fd5b50817f4d9eb296843220178782df8b327fe4e98bf2932f09c3729440b8c17462aeb3b23330846000604051611a9994939291906137d4565b60405180910390a25050565b60007f01ffc9a7000000000000000000000000000000000000000000000000000000007bffffffffffffffffffffffffffffffffffffffffffffffffffffffff1916827bffffffffffffffffffffffffffffffffffffffffffffffffffffffff1916149050919050565b611b188161273a565b611b57576040517f08c379a0000000000000000000000000000000000000000000000000000000008152600401611b4e906138f7565b60405180910390fd5b50565b600033905090565b816004600083815260200190815260200160002060006101000a81548173ffffffffffffffffffffffffffffffffffffffff021916908373ffffffffffffffffffffffffffffffffffffffff160217905550808273ffffffffffffffffffffffffffffffffffffffff16611bd583611292565b73ffffffffffffffffffffffffffffffffffffffff167f8c5be1e5ebec7d5bd14f71427d1e84f3dd0314c0f7b2291e5b200ac8c7c3b92560405160405180910390a45050565b600081600001549050919050565b60008160000154905060008111611c75576040517f08c379a0000000000000000000000000000000000000000000000000000000008152600401611c6c90613c77565b60405180910390fd5b6001810382600001819055505050565b8273ffffffffffffffffffffffffffffffffffffffff16611ca582611292565b73ffffffffffffffffffffffffffffffffffffffff1614611cfb576040517f08c379a0000000000000000000000000000000000000000000000000000000008152600401611cf290613d09565b60405180910390fd5b600073ffffffffffffffffffffffffffffffffffffffff168273ffffffffffffffffffffffffffffffffffffffff1603611d6a576040517f08c379a0000000000000000000000000000000000000000000000000000000008152600401611d6190613d9b565b60405180910390fd5b611d77838383600161277b565b8273ffffffffffffffffffffffffffffffffffffffff16611d9782611292565b73ffffffffffffffffffffffffffffffffffffffff1614611ded576040517f08c379a0000000000000000000000000000000000000000000000000000000008152600401611de490613d09565b60405180910390fd5b6004600082815260200190815260200160002060006101000a81549073ffffffffffffffffffffffffffffffffffffffff02191690556001600360008573ffffffffffffffffffffffffffffffffffffffff1673ffffffffffffffffffffffffffffffffffffffff168152602001908152602001600020600082825403925050819055506001600360008473ffffffffffffffffffffffffffffffffffffffff1673ffffffffffffffffffffffffffffffffffffffff16815260200190815260200160002060008282540192505081905550816002600083815260200190815260200160002060006101000a81548173ffffffffffffffffffffffffffffffffffffffff021916908373ffffffffffffffffffffffffffffffffffffffff160217905550808273ffffffffffffffffffffffffffffffffffffffff168473ffffffffffffffffffffffffffffffffffffffff167fddf252ad1be2c89b69c2b068fc378daa952ba7f163c4a11628f55a4df523b3ef60405160405180910390a4611f798383836001612781565b505050565b600080611f8a83611292565b90508073ffffffffffffffffffffffffffffffffffffffff168473ffffffffffffffffffffffffffffffffffffffff161480611fcc5750611fcb818561179a565b5b8061200a57508373ffffffffffffffffffffffffffffffffffffffff16611ff284610664565b73ffffffffffffffffffffffffffffffffffffffff16145b91505092915050565b60006002600083815260200190815260200160002060009054906101000a900473ffffffffffffffffffffffffffffffffffffffff169050919050565b6001816000016000828254019250508190555050565b600073ffffffffffffffffffffffffffffffffffffffff168273ffffffffffffffffffffffffffffffffffffffff16036120d5576040517f08c379a00000000000000000000000000000000000000000000000000000000081526004016120cc90613e07565b60405180910390fd5b6120de8161273a565b1561211e576040517f08c379a000000000000000000000000000000000000000000000000000000000815260040161211590613e73565b60405180910390fd5b61212c60008383600161277b565b6121358161273a565b15612175576040517f08c379a000000000000000000000000000000000000000000000000000000000815260040161216c90613e73565b60405180910390fd5b6001600360008473ffffffffffffffffffffffffffffffffffffffff1673ffffffffffffffffffffffffffffffffffffffff16815260200190815260200160002060008282540192505081905550816002600083815260200190815260200160002060006101000a81548173ffffffffffffffffffffffffffffffffffffffff021916908373ffffffffffffffffffffffffffffffffffffffff160217905550808273ffffffffffffffffffffffffffffffffffffffff16600073ffffffffffffffffffffffffffffffffffffffff167fddf252ad1be2c89b69c2b068fc378daa952ba7f163c4a11628f55a4df523b3ef60405160405180910390a461227f600083836001612781565b5050565b61228c8261273a565b6122cb576040517f08c379a00000000000000000000000000000000000000000000000000000000081526004016122c290613f05565b60405180910390fd5b806006600084815260200190815260200160002090816122eb91906140d1565b505050565b60008111612333576040517f08c379a000000000000000000000000000000000000000000000000000000000815260040161232a906141ef565b60405180910390fd5b600a543414612377576040517f08c379a000000000000000000000000000000000000000000000000000000000815260040161236e90614281565b60405180910390fd5b6040518060a001604052808381526020013373ffffffffffffffffffffffffffffffffffffffff1681526020013073ffffffffffffffffffffffffffffffffffffffff16815260200182815260200160001515815250600b60008481526020019081526020016000206000820151816000015560208201518160010160006101000a81548173ffffffffffffffffffffffffffffffffffffffff021916908373ffffffffffffffffffffffffffffffffffffffff16021790555060408201518160020160006101000a81548173ffffffffffffffffffffffffffffffffffffffff021916908373ffffffffffffffffffffffffffffffffffffffff1602179055506060820151816003015560808201518160040160006101000a81548160ff0219169083151502179055509050506124b0333084611c85565b817f4d9eb296843220178782df8b327fe4e98bf2932f09c3729440b8c17462aeb3b233308460006040516124e794939291906137d4565b60405180910390a25050565b8173ffffffffffffffffffffffffffffffffffffffff168373ffffffffffffffffffffffffffffffffffffffff1603612561576040517f08c379a0000000000000000000000000000000000000000000000000000000008152600401612558906142ed565b60405180910390fd5b80600560008573ffffffffffffffffffffffffffffffffffffffff1673ffffffffffffffffffffffffffffffffffffffff16815260200190815260200160002060008473ffffffffffffffffffffffffffffffffffffffff1673ffffffffffffffffffffffffffffffffffffffff16815260200190815260200160002060006101000a81548160ff0219169083151502179055508173ffffffffffffffffffffffffffffffffffffffff168373ffffffffffffffffffffffffffffffffffffffff167f17307eab39ab6107e8899845ad3d59bd9653f200f220920489ca2b5937696c31836040516126529190612c63565b60405180910390a3505050565b61266a848484611c85565b61267684848484612787565b6126b5576040517f08c379a00000000000000000000000000000000000000000000000000000000081526004016126ac9061437f565b60405180910390fd5b50505050565b606060405180602001604052806000815250905090565b60606126dd82611b0f565b60006126e76126bb565b905060008151116127075760405180602001604052806000815250612732565b806127118461290e565b604051602001612722929190613b75565b6040516020818303038152906040525b915050919050565b60008073ffffffffffffffffffffffffffffffffffffffff1661275c83612013565b73ffffffffffffffffffffffffffffffffffffffff1614159050919050565b50505050565b50505050565b60006127a88473ffffffffffffffffffffffffffffffffffffffff166129dc565b15612901578373ffffffffffffffffffffffffffffffffffffffff1663150b7a026127d1611b5a565b8786866040518563ffffffff1660e01b81526004016127f394939291906143f4565b6020604051808303816000875af192505050801561282f57506040513d601f19601f8201168201806040525081019061282c9190614455565b60015b6128b1573d806000811461285f576040519150601f19603f3d011682016040523d82523d6000602084013e612864565b606091505b5060008151036128a9576040517f08c379a00000000000000000000000000000000000000000000000000000000081526004016128a09061437f565b60405180910390fd5b805181602001fd5b63150b7a0260e01b7bffffffffffffffffffffffffffffffffffffffffffffffffffffffff1916817bffffffffffffffffffffffffffffffffffffffffffffffffffffffff191614915050612906565b600190505b949350505050565b60606000600161291d846129ff565b01905060008167ffffffffffffffff81111561293c5761293b6130c7565b5b6040519080825280601f01601f19166020018201604052801561296e5781602001600182028036833780820191505090505b509050600082602001820190505b6001156129d1578080600190039150507f3031323334353637383961626364656600000000000000000000000000000000600a86061a8153600a85816129c5576129c4614482565b5b0494506000850361297c575b819350505050919050565b6000808273ffffffffffffffffffffffffffffffffffffffff163b119050919050565b600080600090507a184f03e93ff9f4daa797ed6e38ed64bf6a1f0100000000000000008310612a5d577a184f03e93ff9f4daa797ed6e38ed64bf6a1f0100000000000000008381612a5357612a52614482565b5b0492506040810190505b6d04ee2d6d415b85acef81000000008310612a9a576d04ee2d6d415b85acef81000000008381612a9057612a8f614482565b5b0492506020810190505b662386f26fc100008310612ac957662386f26fc100008381612abf57612abe614482565b5b0492506010810190505b6305f5e1008310612af2576305f5e1008381612ae857612ae7614482565b5b0492506008810190505b6127108310612b17576127108381612b0d57612b0c614482565b5b0492506004810190505b60648310612b3a5760648381612b3057612b2f614482565b5b0492506002810190505b600a8310612b49576001810190505b80915050919050565b6040518060a0016040528060008152602001600073ffffffffffffffffffffffffffffffffffffffff168152602001600073ffffffffffffffffffffffffffffffffffffffff168152602001600081526020016000151581525090565b6000604051905090565b600080fd5b600080fd5b60007fffffffff0000000000000000000000000000000000000000000000000000000082169050919050565b612bf881612bc3565b8114612c0357600080fd5b50565b600081359050612c1581612bef565b92915050565b600060208284031215612c3157612c30612bb9565b5b6000612c3f84828501612c06565b91505092915050565b60008115159050919050565b612c5d81612c48565b82525050565b6000602082019050612c786000830184612c54565b92915050565b600081519050919050565b600082825260208201905092915050565b60005b83811015612cb8578082015181840152602081019050612c9d565b60008484015250505050565b6000601f19601f8301169050919050565b6000612ce082612c7e565b612cea8185612c89565b9350612cfa818560208601612c9a565b612d0381612cc4565b840191505092915050565b60006020820190508181036000830152612d288184612cd5565b905092915050565b6000819050919050565b612d4381612d30565b8114612d4e57600080fd5b50565b600081359050612d6081612d3a565b92915050565b600060208284031215612d7c57612d7b612bb9565b5b6000612d8a84828501612d51565b91505092915050565b600073ffffffffffffffffffffffffffffffffffffffff82169050919050565b6000612dbe82612d93565b9050919050565b612dce81612db3565b82525050565b6000602082019050612de96000830184612dc5565b92915050565b612df881612db3565b8114612e0357600080fd5b50565b600081359050612e1581612def565b92915050565b60008060408385031215612e3257612e31612bb9565b5b6000612e4085828601612e06565b9250506020612e5185828601612d51565b9150509250929050565b600081519050919050565b600082825260208201905092915050565b6000819050602082019050919050565b612e9081612d30565b82525050565b6000612ea182612d93565b9050919050565b612eb181612e96565b82525050565b612ec081612c48565b82525050565b60a082016000820151612edc6000850182612e87565b506020820151612eef6020850182612ea8565b506040820151612f026040850182612ea8565b506060820151612f156060850182612e87565b506080820151612f286080850182612eb7565b50505050565b6000612f3a8383612ec6565b60a08301905092915050565b6000602082019050919050565b6000612f5e82612e5b565b612f688185612e66565b9350612f7383612e77565b8060005b83811015612fa4578151612f8b8882612f2e565b9750612f9683612f46565b925050600181019050612f77565b5085935050505092915050565b60006020820190508181036000830152612fcb8184612f53565b905092915050565b612fdc81612d30565b82525050565b6000602082019050612ff76000830184612fd3565b92915050565b6000806040838503121561301457613013612bb9565b5b600061302285828601612d51565b925050602061303385828601612d51565b9150509250929050565b60008060006060848603121561305657613055612bb9565b5b600061306486828701612e06565b935050602061307586828701612e06565b925050604061308686828701612d51565b9150509250925092565b6000602082840312156130a6576130a5612bb9565b5b60006130b484828501612e06565b91505092915050565b600080fd5b600080fd5b7f4e487b7100000000000000000000000000000000000000000000000000000000600052604160045260246000fd5b6130ff82612cc4565b810181811067ffffffffffffffff8211171561311e5761311d6130c7565b5b80604052505050565b6000613131612baf565b905061313d82826130f6565b919050565b600067ffffffffffffffff82111561315d5761315c6130c7565b5b61316682612cc4565b9050602081019050919050565b82818337600083830152505050565b600061319561319084613142565b613127565b9050828152602081018484840111156131b1576131b06130c2565b5b6131bc848285613173565b509392505050565b600082601f8301126131d9576131d86130bd565b5b81356131e9848260208601613182565b91505092915050565b6000806040838503121561320957613208612bb9565b5b600083013567ffffffffffffffff81111561322757613226612bbe565b5b613233858286016131c4565b925050602061324485828601612d51565b9150509250929050565b61325781612c48565b811461326257600080fd5b50565b6000813590506132748161324e565b92915050565b6000806040838503121561329157613290612bb9565b5b600061329f85828601612e06565b92505060206132b085828601613265565b9150509250929050565b600067ffffffffffffffff8211156132d5576132d46130c7565b5b6132de82612cc4565b9050602081019050919050565b60006132fe6132f9846132ba565b613127565b90508281526020810184848401111561331a576133196130c2565b5b613325848285613173565b509392505050565b600082601f830112613342576133416130bd565b5b81356133528482602086016132eb565b91505092915050565b6000806000806080858703121561337557613374612bb9565b5b600061338387828801612e06565b945050602061339487828801612e06565b93505060406133a587828801612d51565b925050606085013567ffffffffffffffff8111156133c6576133c5612bbe565b5b6133d28782880161332d565b91505092959194509250565b600080604083850312156133f5576133f4612bb9565b5b600061340385828601612e06565b925050602061341485828601612e06565b9150509250929050565b7f4e487b7100000000000000000000000000000000000000000000000000000000600052602260045260246000fd5b6000600282049050600182168061346557607f821691505b6020821081036134785761347761341e565b5b50919050565b7f4552433732313a20617070726f76616c20746f2063757272656e74206f776e6560008201527f7200000000000000000000000000000000000000000000000000000000000000602082015250565b60006134da602183612c89565b91506134e58261347e565b604082019050919050565b60006020820190508181036000830152613509816134cd565b9050919050565b7f4552433732313a20617070726f76652063616c6c6572206973206e6f7420746f60008201527f6b656e206f776e6572206f7220617070726f76656420666f7220616c6c000000602082015250565b600061356c603d83612c89565b915061357782613510565b604082019050919050565b6000602082019050818103600083015261359b8161355f565b9050919050565b7f4e487b7100000000000000000000000000000000000000000000000000000000600052601160045260246000fd5b60006135dc82612d30565b91506135e783612d30565b92508282039050818111156135ff576135fe6135a2565b5b92915050565b600061361082612d30565b915061361b83612d30565b9250828201905080821115613633576136326135a2565b5b92915050565b7f4e487b7100000000000000000000000000000000000000000000000000000000600052603260045260246000fd5b600061367382612d30565b91507fffffffffffffffffffffffffffffffffffffffffffffffffffffffffffffffff82036136a5576136a46135a2565b5b600182019050919050565b7f6f6e6c79206f776e6572206f66206974656d2063616e20706572666f726d207460008201527f686973206f7065726174696f6e00000000000000000000000000000000000000602082015250565b600061370c602d83612c89565b9150613717826136b0565b604082019050919050565b6000602082019050818103600083015261373b816136ff565b9050919050565b7f5072696365206d75737420626520657175616c20746f206c697374696e67207060008201527f7269636500000000000000000000000000000000000000000000000000000000602082015250565b600061379e602483612c89565b91506137a982613742565b604082019050919050565b600060208201905081810360008301526137cd81613791565b9050919050565b60006080820190506137e96000830187612dc5565b6137f66020830186612dc5565b6138036040830185612fd3565b6138106060830184612c54565b95945050505050565b7f4552433732313a2063616c6c6572206973206e6f7420746f6b656e206f776e6560008201527f72206f7220617070726f76656400000000000000000000000000000000000000602082015250565b6000613875602d83612c89565b915061388082613819565b604082019050919050565b600060208201905081810360008301526138a481613868565b9050919050565b7f4552433732313a20696e76616c696420746f6b656e2049440000000000000000600082015250565b60006138e1601883612c89565b91506138ec826138ab565b602082019050919050565b60006020820190508181036000830152613910816138d4565b9050919050565b7f4552433732313a2061646472657373207a65726f206973206e6f74206120766160008201527f6c6964206f776e65720000000000000000000000000000000000000000000000602082015250565b6000613973602983612c89565b915061397e82613917565b604082019050919050565b600060208201905081810360008301526139a281613966565b9050919050565b7f546865205f746f6b656e55726c206d7573742062652068617665000000000000600082015250565b60006139df601a83612c89565b91506139ea826139a9565b602082019050919050565b60006020820190508181036000830152613a0e816139d2565b9050919050565b7f6f6e6c79206f776e6572206f6620746865206d61726b6574706c61636520636160008201527f6e206368616e676520746865206c697374696e67207072696365210000000000602082015250565b6000613a71603b83612c89565b9150613a7c82613a15565b604082019050919050565b60006020820190508181036000830152613aa081613a64565b9050919050565b7f4f6e6c79206d61726b6574706c616365206f776e6572732063616e207570646160008201527f746520746865206c697374696e67207072696365000000000000000000000000602082015250565b6000613b03603483612c89565b9150613b0e82613aa7565b604082019050919050565b60006020820190508181036000830152613b3281613af6565b9050919050565b600081905092915050565b6000613b4f82612c7e565b613b598185613b39565b9350613b69818560208601612c9a565b80840191505092915050565b6000613b818285613b44565b9150613b8d8284613b44565b91508190509392505050565b7f506c65617365207375626d6974207468652061736b696e67207072696365206960008201527f6e206f7264657220746f20636f6d706c65746520746865207075726368617365602082015250565b6000613bf5604083612c89565b9150613c0082613b99565b604082019050919050565b60006020820190508181036000830152613c2481613be8565b9050919050565b7f436f756e7465723a2064656372656d656e74206f766572666c6f770000000000600082015250565b6000613c61601b83612c89565b9150613c6c82613c2b565b602082019050919050565b60006020820190508181036000830152613c9081613c54565b9050919050565b7f4552433732313a207472616e736665722066726f6d20696e636f72726563742060008201527f6f776e6572000000000000000000000000000000000000000000000000000000602082015250565b6000613cf3602583612c89565b9150613cfe82613c97565b604082019050919050565b60006020820190508181036000830152613d2281613ce6565b9050919050565b7f4552433732313a207472616e7366657220746f20746865207a65726f2061646460008201527f7265737300000000000000000000000000000000000000000000000000000000602082015250565b6000613d85602483612c89565b9150613d9082613d29565b604082019050919050565b60006020820190508181036000830152613db481613d78565b9050919050565b7f4552433732313a206d696e7420746f20746865207a65726f2061646472657373600082015250565b6000613df1602083612c89565b9150613dfc82613dbb565b602082019050919050565b60006020820190508181036000830152613e2081613de4565b9050919050565b7f4552433732313a20746f6b656e20616c7265616479206d696e74656400000000600082015250565b6000613e5d601c83612c89565b9150613e6882613e27565b602082019050919050565b60006020820190508181036000830152613e8c81613e50565b9050919050565b7f45524337323155524953746f726167653a2055524920736574206f66206e6f6e60008201527f6578697374656e7420746f6b656e000000000000000000000000000000000000602082015250565b6000613eef602e83612c89565b9150613efa82613e93565b604082019050919050565b60006020820190508181036000830152613f1e81613ee2565b9050919050565b60008190508160005260206000209050919050565b60006020601f8301049050919050565b600082821b905092915050565b600060088302613f877fffffffffffffffffffffffffffffffffffffffffffffffffffffffffffffffff82613f4a565b613f918683613f4a565b95508019841693508086168417925050509392505050565b6000819050919050565b6000613fce613fc9613fc484612d30565b613fa9565b612d30565b9050919050565b6000819050919050565b613fe883613fb3565b613ffc613ff482613fd5565b848454613f57565b825550505050565b600090565b614011614004565b61401c818484613fdf565b505050565b5b8181101561404057614035600082614009565b600181019050614022565b5050565b601f8211156140855761405681613f25565b61405f84613f3a565b8101602085101561406e578190505b61408261407a85613f3a565b830182614021565b50505b505050565b600082821c905092915050565b60006140a86000198460080261408a565b1980831691505092915050565b60006140c18383614097565b9150826002028217905092915050565b6140da82612c7e565b67ffffffffffffffff8111156140f3576140f26130c7565b5b6140fd825461344d565b614108828285614044565b600060209050601f83116001811461413b5760008415614129578287015190505b61413385826140b5565b86555061419b565b601f19841661414986613f25565b60005b828110156141715784890151825560018201915060208501945060208101905061414c565b8683101561418e578489015161418a601f891682614097565b8355505b6001600288020188555050505b505050505050565b7f7072696365206d75737420626520616c206c6573742031000000000000000000600082015250565b60006141d9601783612c89565b91506141e4826141a3565b602082019050919050565b60006020820190508181036000830152614208816141cc565b9050919050565b7f7072696365206d75737420626520657175616c20746f206c697374696e67507260008201527f6963650000000000000000000000000000000000000000000000000000000000602082015250565b600061426b602383612c89565b91506142768261420f565b604082019050919050565b6000602082019050818103600083015261429a8161425e565b9050919050565b7f4552433732313a20617070726f766520746f2063616c6c657200000000000000600082015250565b60006142d7601983612c89565b91506142e2826142a1565b602082019050919050565b60006020820190508181036000830152614306816142ca565b9050919050565b7f4552433732313a207472616e7366657220746f206e6f6e20455243373231526560008201527f63656976657220696d706c656d656e7465720000000000000000000000000000602082015250565b6000614369603283612c89565b91506143748261430d565b604082019050919050565b600060208201905081810360008301526143988161435c565b9050919050565b600081519050919050565b600082825260208201905092915050565b60006143c68261439f565b6143d081856143aa565b93506143e0818560208601612c9a565b6143e981612cc4565b840191505092915050565b60006080820190506144096000830187612dc5565b6144166020830186612dc5565b6144236040830185612fd3565b818103606083015261443581846143bb565b905095945050505050565b60008151905061444f81612bef565b92915050565b60006020828403121561446b5761446a612bb9565b5b600061447984828501614440565b91505092915050565b7f4e487b7100000000000000000000000000000000000000000000000000000000600052601260045260246000fdfea26469706673582212208ee09dfde36598b3ec46802748264bdd9903eaf7fb6c8762b6a921cde7e0e35264736f6c63430008120033",
  "linkReferences": {},
  "deployedLinkReferences": {}
}