{
  "_format": "hh-sol-artifact-1",
  "contractName": "NFTMarketplace",
  "sourceName": "contracts/nft-marketplace.sol",
  "abi": [
    {
      "inputs": [],
      "stateMutability": "nonpayable",
      "type": "constructor"
    },
    {
      "anonymous": false,
      "inputs": [
        {
          "indexed": true,
          "internalType": "address",
          "name": "owner",
          "type": "address"
        },
        {
          "indexed": true,
          "internalType": "address",
          "name": "approved",
          "type": "address"
        },
        {
          "indexed": true,
          "internalType": "uint256",
          "name": "tokenId",
          "type": "uint256"
        }
      ],
      "name": "Approval",
      "type": "event"
    },
    {
      "anonymous": false,
      "inputs": [
        {
          "indexed": true,
          "internalType": "address",
          "name": "owner",
          "type": "address"
        },
        {
          "indexed": true,
          "internalType": "address",
          "name": "operator",
          "type": "address"
        },
        {
          "indexed": false,
          "internalType": "bool",
          "name": "approved",
          "type": "bool"
        }
      ],
      "name": "ApprovalForAll",
      "type": "event"
    },
    {
      "anonymous": false,
      "inputs": [
        {
          "indexed": true,
          "internalType": "uint256",
          "name": "tokenId",
          "type": "uint256"
        },
        {
          "indexed": false,
          "internalType": "address",
          "name": "seller",
          "type": "address"
        },
        {
          "indexed": false,
          "internalType": "address",
          "name": "owner",
          "type": "address"
        },
        {
          "indexed": false,
          "internalType": "uint256",
          "name": "price",
          "type": "uint256"
        },
        {
          "indexed": false,
          "internalType": "bool",
          "name": "sold",
          "type": "bool"
        }
      ],
      "name": "MarketItemEvent",
      "type": "event"
    },
    {
      "anonymous": false,
      "inputs": [
        {
          "indexed": true,
          "internalType": "address",
          "name": "from",
          "type": "address"
        },
        {
          "indexed": true,
          "internalType": "address",
          "name": "to",
          "type": "address"
        },
        {
          "indexed": true,
          "internalType": "uint256",
          "name": "tokenId",
          "type": "uint256"
        }
      ],
      "name": "Transfer",
      "type": "event"
    },
    {
      "inputs": [
        {
          "internalType": "address",
          "name": "to",
          "type": "address"
        },
        {
          "internalType": "uint256",
          "name": "tokenId",
          "type": "uint256"
        }
      ],
      "name": "approve",
      "outputs": [],
      "stateMutability": "nonpayable",
      "type": "function"
    },
    {
      "inputs": [
        {
          "internalType": "address",
          "name": "owner",
          "type": "address"
        }
      ],
      "name": "balanceOf",
      "outputs": [
        {
          "internalType": "uint256",
          "name": "",
          "type": "uint256"
        }
      ],
      "stateMutability": "view",
      "type": "function"
    },
    {
      "inputs": [
        {
          "internalType": "string",
          "name": "_tokenURI",
          "type": "string"
        },
        {
          "internalType": "uint256",
          "name": "price",
          "type": "uint256"
        }
      ],
      "name": "createToken",
      "outputs": [
        {
          "internalType": "uint256",
          "name": "",
          "type": "uint256"
        }
      ],
      "stateMutability": "payable",
      "type": "function"
    },
    {
      "inputs": [],
      "name": "fetchItemsListed",
      "outputs": [
        {
          "components": [
            {
              "internalType": "uint256",
              "name": "tokenId",
              "type": "uint256"
            },
            {
              "internalType": "address payable",
              "name": "seller",
              "type": "address"
            },
            {
              "internalType": "address payable",
              "name": "owner",
              "type": "address"
            },
            {
              "internalType": "uint256",
              "name": "price",
              "type": "uint256"
            },
            {
              "internalType": "bool",
              "name": "sold",
              "type": "bool"
            }
          ],
          "internalType": "struct NFTMarketplace.MarketItem[]",
          "name": "",
          "type": "tuple[]"
        }
      ],
      "stateMutability": "view",
      "type": "function"
    },
    {
      "inputs": [],
      "name": "fetchMyNFTs",
      "outputs": [
        {
          "components": [
            {
              "internalType": "uint256",
              "name": "tokenId",
              "type": "uint256"
            },
            {
              "internalType": "address payable",
              "name": "seller",
              "type": "address"
            },
            {
              "internalType": "address payable",
              "name": "owner",
              "type": "address"
            },
            {
              "internalType": "uint256",
              "name": "price",
              "type": "uint256"
            },
            {
              "internalType": "bool",
              "name": "sold",
              "type": "bool"
            }
          ],
          "internalType": "struct NFTMarketplace.MarketItem[]",
          "name": "",
          "type": "tuple[]"
        }
      ],
      "stateMutability": "view",
      "type": "function"
    },
    {
      "inputs": [
        {
          "internalType": "uint256",
          "name": "tokenId",
          "type": "uint256"
        }
      ],
      "name": "getApproved",
      "outputs": [
        {
          "internalType": "address",
          "name": "",
          "type": "address"
        }
      ],
      "stateMutability": "view",
      "type": "function"
    },
    {
      "inputs": [],
      "name": "getListingPrice",
      "outputs": [
        {
          "internalType": "uint256",
          "name": "",
          "type": "uint256"
        }
      ],
      "stateMutability": "view",
      "type": "function"
    },
    {
      "inputs": [
        {
          "internalType": "address",
          "name": "owner",
          "type": "address"
        },
        {
          "internalType": "address",
          "name": "operator",
          "type": "address"
        }
      ],
      "name": "isApprovedForAll",
      "outputs": [
        {
          "internalType": "bool",
          "name": "",
          "type": "bool"
        }
      ],
      "stateMutability": "view",
      "type": "function"
    },
    {
      "inputs": [],
      "name": "name",
      "outputs": [
        {
          "internalType": "string",
          "name": "",
          "type": "string"
        }
      ],
      "stateMutability": "view",
      "type": "function"
    },
    {
      "inputs": [
        {
          "internalType": "uint256",
          "name": "tokenId",
          "type": "uint256"
        }
      ],
      "name": "ownerOf",
      "outputs": [
        {
          "internalType": "address",
          "name": "",
          "type": "address"
        }
      ],
      "stateMutability": "view",
      "type": "function"
    },
    {
      "inputs": [
        {
          "internalType": "uint256",
          "name": "tokenId",
          "type": "uint256"
        }
      ],
      "name": "purchase",
      "outputs": [],
      "stateMutability": "payable",
      "type": "function"
    },
    {
      "inputs": [],
      "name": "queryMarketItems",
      "outputs": [
        {
          "components": [
            {
              "internalType": "uint256",
              "name": "tokenId",
              "type": "uint256"
            },
            {
              "internalType": "address payable",
              "name": "seller",
              "type": "address"
            },
            {
              "internalType": "address payable",
              "name": "owner",
              "type": "address"
            },
            {
              "internalType": "uint256",
              "name": "price",
              "type": "uint256"
            },
            {
              "internalType": "bool",
              "name": "sold",
              "type": "bool"
            }
          ],
          "internalType": "struct NFTMarketplace.MarketItem[]",
          "name": "",
          "type": "tuple[]"
        }
      ],
      "stateMutability": "view",
      "type": "function"
    },
    {
      "inputs": [
        {
          "internalType": "address",
          "name": "from",
          "type": "address"
        },
        {
          "internalType": "address",
          "name": "to",
          "type": "address"
        },
        {
          "internalType": "uint256",
          "name": "tokenId",
          "type": "uint256"
        }
      ],
      "name": "safeTransferFrom",
      "outputs": [],
      "stateMutability": "nonpayable",
      "type": "function"
    },
    {
      "inputs": [
        {
          "internalType": "address",
          "name": "from",
          "type": "address"
        },
        {
          "internalType": "address",
          "name": "to",
          "type": "address"
        },
        {
          "internalType": "uint256",
          "name": "tokenId",
          "type": "uint256"
        },
        {
          "internalType": "bytes",
          "name": "data",
          "type": "bytes"
        }
      ],
      "name": "safeTransferFrom",
      "outputs": [],
      "stateMutability": "nonpayable",
      "type": "function"
    },
    {
      "inputs": [
        {
          "internalType": "uint256",
          "name": "tokenId",
          "type": "uint256"
        },
        {
          "internalType": "uint256",
          "name": "price",
          "type": "uint256"
        }
      ],
      "name": "sellToken",
      "outputs": [],
      "stateMutability": "payable",
      "type": "function"
    },
    {
      "inputs": [
        {
          "internalType": "address",
          "name": "operator",
          "type": "address"
        },
        {
          "internalType": "bool",
          "name": "approved",
          "type": "bool"
        }
      ],
      "name": "setApprovalForAll",
      "outputs": [],
      "stateMutability": "nonpayable",
      "type": "function"
    },
    {
      "inputs": [
        {
          "internalType": "bytes4",
          "name": "interfaceId",
          "type": "bytes4"
        }
      ],
      "name": "supportsInterface",
      "outputs": [
        {
          "internalType": "bool",
          "name": "",
          "type": "bool"
        }
      ],
      "stateMutability": "view",
      "type": "function"
    },
    {
      "inputs": [],
      "name": "symbol",
      "outputs": [
        {
          "internalType": "string",
          "name": "",
          "type": "string"
        }
      ],
      "stateMutability": "view",
      "type": "function"
    },
    {
      "inputs": [
        {
          "internalType": "uint256",
          "name": "tokenId",
          "type": "uint256"
        }
      ],
      "name": "tokenURI",
      "outputs": [
        {
          "internalType": "string",
          "name": "",
          "type": "string"
        }
      ],
      "stateMutability": "view",
      "type": "function"
    },
    {
      "inputs": [
        {
          "internalType": "address",
          "name": "from",
          "type": "address"
        },
        {
          "internalType": "address",
          "name": "to",
          "type": "address"
        },
        {
          "internalType": "uint256",
          "name": "tokenId",
          "type": "uint256"
        }
      ],
      "name": "transferFrom",
      "outputs": [],
      "stateMutability": "nonpayable",
      "type": "function"
    },
    {
      "inputs": [
        {
          "internalType": "uint256",
          "name": "_listingPrice",
          "type": "uint256"
        }
      ],
      "name": "updateListingPrice",
      "outputs": [],
      "stateMutability": "payable",
      "type": "function"
    }
  ],
  "bytecode": "0x60806040526658d15e17628000600a553480156200001c57600080fd5b506040518060400160405280601381526020017f4e4654204d657461766572736520546f6b656e000000000000000000000000008152506040518060400160405280600381526020017f4e4d54000000000000000000000000000000000000000000000000000000000081525081600090816200009a919062000355565b508060019081620000ac919062000355565b5050503373ffffffffffffffffffffffffffffffffffffffff16600960009054906101000a905050506200043c565b600081519050919050565b7f4e487b7100000000000000000000000000000000000000000000000000000000600052604160045260246000fd5b7f4e487b7100000000000000000000000000000000000000000000000000000000600052602260045260246000fd5b600060028204905060018216806200015d57607f821691505b60208210810362000173576200017262000115565b5b50919050565b60008190508160005260206000209050919050565b60006020601f8301049050919050565b600082821b905092915050565b600060088302620001dd7fffffffffffffffffffffffffffffffffffffffffffffffffffffffffffffffff826200019e565b620001e986836200019e565b95508019841693508086168417925050509392505050565b6000819050919050565b6000819050919050565b600062000236620002306200022a8462000201565b6200020b565b62000201565b9050919050565b6000819050919050565b620002528362000215565b6200026a62000261826200023d565b848454620001ab565b825550505050565b600090565b6200028162000272565b6200028e81848462000247565b505050565b5b81811015620002b657620002aa60008262000277565b60018101905062000294565b5050565b601f8211156200030557620002cf8162000179565b620002da846200018e565b81016020851015620002ea578190505b62000302620002f9856200018e565b83018262000293565b50505b505050565b600082821c905092915050565b60006200032a600019846008026200030a565b1980831691505092915050565b600062000345838362000317565b9150826002028217905092915050565b6200036082620000db565b67ffffffffffffffff8111156200037c576200037b620000e6565b5b62000388825462000144565b62000395828285620002ba565b600060209050601f831160018114620003cd5760008415620003b8578287015190505b620003c4858262000337565b86555062000434565b601f198416620003dd8662000179565b60005b828110156200040757848901518255600182019150602085019450602081019050620003e0565b8683101562000427578489015162000423601f89168262000317565b8355505b6001600288020188555050505b505050505050565b6144f3806200044c6000396000f3fe60806040526004361061012a5760003560e01c80636352211e116100ab578063ae677aa31161006f578063ae677aa3146103ea578063b88d4fde14610406578063c87b56dd1461042f578063daf3687e1461046c578063e985e9c514610497578063efef39a1146104d45761012a565b80636352211e146102ec57806370a082311461032957806372b3b6201461036657806395d89b4114610396578063a22cb465146103c15761012a565b80631897bcf3116100f25780631897bcf314610228578063202e37401461024457806323b872dd1461026f57806342842e0e1461029857806345f8fa80146102c15761012a565b806301ffc9a71461012f57806306fdde031461016c578063081812fc14610197578063095ea7b3146101d457806312e85585146101fd575b600080fd5b34801561013b57600080fd5b5061015660048036038101906101519190612c27565b6104f0565b6040516101639190612c6f565b60405180910390f35b34801561017857600080fd5b506101816105d2565b60405161018e9190612d1a565b60405180910390f35b3480156101a357600080fd5b506101be60048036038101906101b99190612d72565b610664565b6040516101cb9190612de0565b60405180910390f35b3480156101e057600080fd5b506101fb60048036038101906101f69190612e27565b6106aa565b005b34801561020957600080fd5b506102126107c1565b60405161021f9190612e76565b60405180910390f35b610242600480360381019061023d9190612e91565b6107cb565b005b34801561025057600080fd5b506102596109ff565b6040516102669190613027565b60405180910390f35b34801561027b57600080fd5b5061029660048036038101906102919190613049565b610cdf565b005b3480156102a457600080fd5b506102bf60048036038101906102ba9190613049565b610d3f565b005b3480156102cd57600080fd5b506102d6610d5f565b6040516102e39190613027565b60405180910390f35b3480156102f857600080fd5b50610313600480360381019061030e9190612d72565b61103f565b6040516103209190612de0565b60405180910390f35b34801561033557600080fd5b50610350600480360381019061034b919061309c565b6110c5565b60405161035d9190612e76565b60405180910390f35b610380600480360381019061037b91906131fe565b61117c565b60405161038d9190612e76565b60405180910390f35b3480156103a257600080fd5b506103ab611201565b6040516103b89190612d1a565b60405180910390f35b3480156103cd57600080fd5b506103e860048036038101906103e39190613286565b611293565b005b61040460048036038101906103ff9190612d72565b6112a9565b005b34801561041257600080fd5b5061042d60048036038101906104289190613367565b6113d3565b005b34801561043b57600080fd5b5061045660048036038101906104519190612d72565b611435565b6040516104639190612d1a565b60405180910390f35b34801561047857600080fd5b50610481611547565b60405161048e9190613027565b60405180910390f35b3480156104a357600080fd5b506104be60048036038101906104b991906133ea565b6117a6565b6040516104cb9190612c6f565b60405180910390f35b6104ee60048036038101906104e99190612d72565b61183a565b005b60007f80ac58cd000000000000000000000000000000000000000000000000000000007bffffffffffffffffffffffffffffffffffffffffffffffffffffffff1916827bffffffffffffffffffffffffffffffffffffffffffffffffffffffff191614806105bb57507f5b5e139f000000000000000000000000000000000000000000000000000000007bffffffffffffffffffffffffffffffffffffffffffffffffffffffff1916827bffffffffffffffffffffffffffffffffffffffffffffffffffffffff1916145b806105cb57506105ca82611ab1565b5b9050919050565b6060600080546105e190613459565b80601f016020809104026020016040519081016040528092919081815260200182805461060d90613459565b801561065a5780601f1061062f5761010080835404028352916020019161065a565b820191906000526020600020905b81548152906001019060200180831161063d57829003601f168201915b5050505050905090565b600061066f82611b1b565b6004600083815260200190815260200160002060009054906101000a900473ffffffffffffffffffffffffffffffffffffffff169050919050565b60006106b58261103f565b90508073ffffffffffffffffffffffffffffffffffffffff168373ffffffffffffffffffffffffffffffffffffffff1603610725576040517f08c379a000000000000000000000000000000000000000000000000000000000815260040161071c906134fc565b60405180910390fd5b8073ffffffffffffffffffffffffffffffffffffffff16610744611b66565b73ffffffffffffffffffffffffffffffffffffffff16148061077357506107728161076d611b66565b6117a6565b5b6107b2576040517f08c379a00000000000000000000000000000000000000000000000000000000081526004016107a99061358e565b60405180910390fd5b6107bc8383611b6e565b505050565b6000600a54905090565b3373ffffffffffffffffffffffffffffffffffffffff16600b600084815260200190815260200160002060020160009054906101000a900473ffffffffffffffffffffffffffffffffffffffff1673ffffffffffffffffffffffffffffffffffffffff161461086f576040517f08c379a000000000000000000000000000000000000000000000000000000000815260040161086690613620565b60405180910390fd5b600a5434146108b3576040517f08c379a00000000000000000000000000000000000000000000000000000000081526004016108aa906136b2565b60405180910390fd5b33600b600084815260200190815260200160002060010160006101000a81548173ffffffffffffffffffffffffffffffffffffffff021916908373ffffffffffffffffffffffffffffffffffffffff16021790555080600b6000848152602001908152602001600020600301819055506000600b600084815260200190815260200160002060040160006101000a81548160ff02191690831515021790555030600b600084815260200190815260200160002060020160006101000a81548173ffffffffffffffffffffffffffffffffffffffff021916908373ffffffffffffffffffffffffffffffffffffffff1602179055506109b16008611c27565b6109bc333084611c83565b817f4d9eb296843220178782df8b327fe4e98bf2932f09c3729440b8c17462aeb3b233308460006040516109f394939291906136d2565b60405180910390a25050565b60606000610a0d6007611f7c565b905060008060005b83811015610ab5573373ffffffffffffffffffffffffffffffffffffffff16600b6000600184610a459190613746565b815260200190815260200160002060020160009054906101000a900473ffffffffffffffffffffffffffffffffffffffff1673ffffffffffffffffffffffffffffffffffffffff1603610aa257600183610a9f9190613746565b92505b8080610aad9061377a565b915050610a15565b5060008267ffffffffffffffff811115610ad257610ad16130d3565b5b604051908082528060200260200182016040528015610b0b57816020015b610af8612b5e565b815260200190600190039081610af05790505b50905060005b84811015610cd4573373ffffffffffffffffffffffffffffffffffffffff16600b6000600184610b419190613746565b815260200190815260200160002060020160009054906101000a900473ffffffffffffffffffffffffffffffffffffffff1673ffffffffffffffffffffffffffffffffffffffff1603610cc157600b6000600183610b9f9190613746565b81526020019081526020016000206040518060a0016040529081600082015481526020016001820160009054906101000a900473ffffffffffffffffffffffffffffffffffffffff1673ffffffffffffffffffffffffffffffffffffffff1673ffffffffffffffffffffffffffffffffffffffff1681526020016002820160009054906101000a900473ffffffffffffffffffffffffffffffffffffffff1673ffffffffffffffffffffffffffffffffffffffff1673ffffffffffffffffffffffffffffffffffffffff168152602001600382015481526020016004820160009054906101000a900460ff161515151581525050828481518110610ca657610ca56137c2565b5b6020026020010181905250600183610cbe9190613746565b92505b8080610ccc9061377a565b915050610b11565b508094505050505090565b610cf0610cea611b66565b82611f8a565b610d2f576040517f08c379a0000000000000000000000000000000000000000000000000000000008152600401610d2690613863565b60405180910390fd5b610d3a838383611c83565b505050565b610d5a838383604051806020016040528060008152506113d3565b505050565b60606000610d6d6007611f7c565b905060008060005b83811015610e15573373ffffffffffffffffffffffffffffffffffffffff16600b6000600184610da59190613746565b815260200190815260200160002060010160009054906101000a900473ffffffffffffffffffffffffffffffffffffffff1673ffffffffffffffffffffffffffffffffffffffff1603610e0257600183610dff9190613746565b92505b8080610e0d9061377a565b915050610d75565b5060008267ffffffffffffffff811115610e3257610e316130d3565b5b604051908082528060200260200182016040528015610e6b57816020015b610e58612b5e565b815260200190600190039081610e505790505b50905060005b84811015611034573373ffffffffffffffffffffffffffffffffffffffff16600b6000600184610ea19190613746565b815260200190815260200160002060010160009054906101000a900473ffffffffffffffffffffffffffffffffffffffff1673ffffffffffffffffffffffffffffffffffffffff160361102157600b6000600183610eff9190613746565b81526020019081526020016000206040518060a0016040529081600082015481526020016001820160009054906101000a900473ffffffffffffffffffffffffffffffffffffffff1673ffffffffffffffffffffffffffffffffffffffff1673ffffffffffffffffffffffffffffffffffffffff1681526020016002820160009054906101000a900473ffffffffffffffffffffffffffffffffffffffff1673ffffffffffffffffffffffffffffffffffffffff1673ffffffffffffffffffffffffffffffffffffffff168152602001600382015481526020016004820160009054906101000a900460ff161515151581525050828481518110611006576110056137c2565b5b602002602001018190525060018361101e9190613746565b92505b808061102c9061377a565b915050610e71565b508094505050505090565b60008061104b8361201f565b9050600073ffffffffffffffffffffffffffffffffffffffff168173ffffffffffffffffffffffffffffffffffffffff16036110bc576040517f08c379a00000000000000000000000000000000000000000000000000000000081526004016110b3906138cf565b60405180910390fd5b80915050919050565b60008073ffffffffffffffffffffffffffffffffffffffff168273ffffffffffffffffffffffffffffffffffffffff1603611135576040517f08c379a000000000000000000000000000000000000000000000000000000000815260040161112c90613961565b60405180910390fd5b600360008373ffffffffffffffffffffffffffffffffffffffff1673ffffffffffffffffffffffffffffffffffffffff168152602001908152602001600020549050919050565b6000808351116111c1576040517f08c379a00000000000000000000000000000000000000000000000000000000081526004016111b8906139cd565b60405180910390fd5b6111cb600761205c565b60006111d76007611f7c565b90506111e33382612072565b6111ed818561228f565b6111f781846122fc565b8091505092915050565b60606001805461121090613459565b80601f016020809104026020016040519081016040528092919081815260200182805461123c90613459565b80156112895780601f1061125e57610100808354040283529160200191611289565b820191906000526020600020905b81548152906001019060200180831161126c57829003601f168201915b5050505050905090565b6112a561129e611b66565b83836124ff565b5050565b600960009054906101000a900473ffffffffffffffffffffffffffffffffffffffff1673ffffffffffffffffffffffffffffffffffffffff163373ffffffffffffffffffffffffffffffffffffffff1614611339576040517f08c379a000000000000000000000000000000000000000000000000000000000815260040161133090613a5f565b60405180910390fd5b3373ffffffffffffffffffffffffffffffffffffffff16600960009054906101000a900473ffffffffffffffffffffffffffffffffffffffff1673ffffffffffffffffffffffffffffffffffffffff16146113c9576040517f08c379a00000000000000000000000000000000000000000000000000000000081526004016113c090613af1565b60405180910390fd5b80600a8190555050565b6113e46113de611b66565b83611f8a565b611423576040517f08c379a000000000000000000000000000000000000000000000000000000000815260040161141a90613863565b60405180910390fd5b61142f8484848461266b565b50505050565b606061144082611b1b565b600060066000848152602001908152602001600020805461146090613459565b80601f016020809104026020016040519081016040528092919081815260200182805461148c90613459565b80156114d95780601f106114ae576101008083540402835291602001916114d9565b820191906000526020600020905b8154815290600101906020018083116114bc57829003601f168201915b5050505050905060006114ea6126c7565b905060008151036114ff578192505050611542565b60008251111561153457808260405160200161151c929190613b4d565b60405160208183030381529060405292505050611542565b61153d846126de565b925050505b919050565b606060006115556007611f7c565b905060006115636008611f7c565b8261156e9190613b71565b90506000808267ffffffffffffffff81111561158d5761158c6130d3565b5b6040519080825280602002602001820160405280156115c657816020015b6115b3612b5e565b8152602001906001900390816115ab5790505b50905060005b8381101561179b573073ffffffffffffffffffffffffffffffffffffffff16600b60006001846115fc9190613746565b815260200190815260200160002060020160009054906101000a900473ffffffffffffffffffffffffffffffffffffffff1673ffffffffffffffffffffffffffffffffffffffff160361178857600b600060018361165a9190613746565b81526020019081526020016000206040518060a0016040529081600082015481526020016001820160009054906101000a900473ffffffffffffffffffffffffffffffffffffffff1673ffffffffffffffffffffffffffffffffffffffff1673ffffffffffffffffffffffffffffffffffffffff1681526020016002820160009054906101000a900473ffffffffffffffffffffffffffffffffffffffff1673ffffffffffffffffffffffffffffffffffffffff1673ffffffffffffffffffffffffffffffffffffffff168152602001600382015481526020016004820160009054906101000a900460ff1615151515815250508260018361175c9190613746565b8151811061176d5761176c6137c2565b5b60200260200101819052506001836117859190613746565b92505b80806117939061377a565b9150506115cc565b508094505050505090565b6000600560008473ffffffffffffffffffffffffffffffffffffffff1673ffffffffffffffffffffffffffffffffffffffff16815260200190815260200160002060008373ffffffffffffffffffffffffffffffffffffffff1673ffffffffffffffffffffffffffffffffffffffff16815260200190815260200160002060009054906101000a900460ff16905092915050565b6000600b6000838152602001908152602001600020600301549050803414611897576040517f08c379a000000000000000000000000000000000000000000000000000000000815260040161188e90613c17565b60405180910390fd5b33600b600084815260200190815260200160002060020160006101000a81548173ffffffffffffffffffffffffffffffffffffffff021916908373ffffffffffffffffffffffffffffffffffffffff1602179055506001600b600084815260200190815260200160002060040160006101000a81548160ff0219169083151502179055506000600b600084815260200190815260200160002060010160006101000a81548173ffffffffffffffffffffffffffffffffffffffff021916908373ffffffffffffffffffffffffffffffffffffffff16021790555061197b600861205c565b611986303384611c83565b600960009054906101000a900473ffffffffffffffffffffffffffffffffffffffff1673ffffffffffffffffffffffffffffffffffffffff166108fc600a549081150290604051600060405180830381858888f193505050501580156119f0573d6000803e3d6000fd5b50600b600083815260200190815260200160002060010160009054906101000a900473ffffffffffffffffffffffffffffffffffffffff1673ffffffffffffffffffffffffffffffffffffffff166108fc349081150290604051600060405180830381858888f19350505050158015611a6d573d6000803e3d6000fd5b50817f4d9eb296843220178782df8b327fe4e98bf2932f09c3729440b8c17462aeb3b23330846000604051611aa594939291906136d2565b60405180910390a25050565b60007f01ffc9a7000000000000000000000000000000000000000000000000000000007bffffffffffffffffffffffffffffffffffffffffffffffffffffffff1916827bffffffffffffffffffffffffffffffffffffffffffffffffffffffff1916149050919050565b611b2481612746565b611b63576040517f08c379a0000000000000000000000000000000000000000000000000000000008152600401611b5a906138cf565b60405180910390fd5b50565b600033905090565b816004600083815260200190815260200160002060006101000a81548173ffffffffffffffffffffffffffffffffffffffff021916908373ffffffffffffffffffffffffffffffffffffffff160217905550808273ffffffffffffffffffffffffffffffffffffffff16611be18361103f565b73ffffffffffffffffffffffffffffffffffffffff167f8c5be1e5ebec7d5bd14f71427d1e84f3dd0314c0f7b2291e5b200ac8c7c3b92560405160405180910390a45050565b60008160000154905060008111611c73576040517f08c379a0000000000000000000000000000000000000000000000000000000008152600401611c6a90613c83565b60405180910390fd5b6001810382600001819055505050565b8273ffffffffffffffffffffffffffffffffffffffff16611ca38261103f565b73ffffffffffffffffffffffffffffffffffffffff1614611cf9576040517f08c379a0000000000000000000000000000000000000000000000000000000008152600401611cf090613d15565b60405180910390fd5b600073ffffffffffffffffffffffffffffffffffffffff168273ffffffffffffffffffffffffffffffffffffffff1603611d68576040517f08c379a0000000000000000000000000000000000000000000000000000000008152600401611d5f90613da7565b60405180910390fd5b611d758383836001612787565b8273ffffffffffffffffffffffffffffffffffffffff16611d958261103f565b73ffffffffffffffffffffffffffffffffffffffff1614611deb576040517f08c379a0000000000000000000000000000000000000000000000000000000008152600401611de290613d15565b60405180910390fd5b6004600082815260200190815260200160002060006101000a81549073ffffffffffffffffffffffffffffffffffffffff02191690556001600360008573ffffffffffffffffffffffffffffffffffffffff1673ffffffffffffffffffffffffffffffffffffffff168152602001908152602001600020600082825403925050819055506001600360008473ffffffffffffffffffffffffffffffffffffffff1673ffffffffffffffffffffffffffffffffffffffff16815260200190815260200160002060008282540192505081905550816002600083815260200190815260200160002060006101000a81548173ffffffffffffffffffffffffffffffffffffffff021916908373ffffffffffffffffffffffffffffffffffffffff160217905550808273ffffffffffffffffffffffffffffffffffffffff168473ffffffffffffffffffffffffffffffffffffffff167fddf252ad1be2c89b69c2b068fc378daa952ba7f163c4a11628f55a4df523b3ef60405160405180910390a4611f77838383600161278d565b505050565b600081600001549050919050565b600080611f968361103f565b90508073ffffffffffffffffffffffffffffffffffffffff168473ffffffffffffffffffffffffffffffffffffffff161480611fd85750611fd781856117a6565b5b8061201657508373ffffffffffffffffffffffffffffffffffffffff16611ffe84610664565b73ffffffffffffffffffffffffffffffffffffffff16145b91505092915050565b60006002600083815260200190815260200160002060009054906101000a900473ffffffffffffffffffffffffffffffffffffffff169050919050565b6001816000016000828254019250508190555050565b600073ffffffffffffffffffffffffffffffffffffffff168273ffffffffffffffffffffffffffffffffffffffff16036120e1576040517f08c379a00000000000000000000000000000000000000000000000000000000081526004016120d890613e13565b60405180910390fd5b6120ea81612746565b1561212a576040517f08c379a000000000000000000000000000000000000000000000000000000000815260040161212190613e7f565b60405180910390fd5b612138600083836001612787565b61214181612746565b15612181576040517f08c379a000000000000000000000000000000000000000000000000000000000815260040161217890613e7f565b60405180910390fd5b6001600360008473ffffffffffffffffffffffffffffffffffffffff1673ffffffffffffffffffffffffffffffffffffffff16815260200190815260200160002060008282540192505081905550816002600083815260200190815260200160002060006101000a81548173ffffffffffffffffffffffffffffffffffffffff021916908373ffffffffffffffffffffffffffffffffffffffff160217905550808273ffffffffffffffffffffffffffffffffffffffff16600073ffffffffffffffffffffffffffffffffffffffff167fddf252ad1be2c89b69c2b068fc378daa952ba7f163c4a11628f55a4df523b3ef60405160405180910390a461228b60008383600161278d565b5050565b61229882612746565b6122d7576040517f08c379a00000000000000000000000000000000000000000000000000000000081526004016122ce90613f11565b60405180910390fd5b806006600084815260200190815260200160002090816122f791906140dd565b505050565b6000811161233f576040517f08c379a0000000000000000000000000000000000000000000000000000000008152600401612336906141fb565b60405180910390fd5b600a543414612383576040517f08c379a000000000000000000000000000000000000000000000000000000000815260040161237a9061428d565b60405180910390fd5b6040518060a001604052808381526020013373ffffffffffffffffffffffffffffffffffffffff1681526020013073ffffffffffffffffffffffffffffffffffffffff16815260200182815260200160001515815250600b60008481526020019081526020016000206000820151816000015560208201518160010160006101000a81548173ffffffffffffffffffffffffffffffffffffffff021916908373ffffffffffffffffffffffffffffffffffffffff16021790555060408201518160020160006101000a81548173ffffffffffffffffffffffffffffffffffffffff021916908373ffffffffffffffffffffffffffffffffffffffff1602179055506060820151816003015560808201518160040160006101000a81548160ff0219169083151502179055509050506124bc333084611c83565b817f4d9eb296843220178782df8b327fe4e98bf2932f09c3729440b8c17462aeb3b233308460006040516124f394939291906136d2565b60405180910390a25050565b8173ffffffffffffffffffffffffffffffffffffffff168373ffffffffffffffffffffffffffffffffffffffff160361256d576040517f08c379a0000000000000000000000000000000000000000000000000000000008152600401612564906142f9565b60405180910390fd5b80600560008573ffffffffffffffffffffffffffffffffffffffff1673ffffffffffffffffffffffffffffffffffffffff16815260200190815260200160002060008473ffffffffffffffffffffffffffffffffffffffff1673ffffffffffffffffffffffffffffffffffffffff16815260200190815260200160002060006101000a81548160ff0219169083151502179055508173ffffffffffffffffffffffffffffffffffffffff168373ffffffffffffffffffffffffffffffffffffffff167f17307eab39ab6107e8899845ad3d59bd9653f200f220920489ca2b5937696c318360405161265e9190612c6f565b60405180910390a3505050565b612676848484611c83565b61268284848484612793565b6126c1576040517f08c379a00000000000000000000000000000000000000000000000000000000081526004016126b89061438b565b60405180910390fd5b50505050565b606060405180602001604052806000815250905090565b60606126e982611b1b565b60006126f36126c7565b90506000815111612713576040518060200160405280600081525061273e565b8061271d8461291a565b60405160200161272e929190613b4d565b6040516020818303038152906040525b915050919050565b60008073ffffffffffffffffffffffffffffffffffffffff166127688361201f565b73ffffffffffffffffffffffffffffffffffffffff1614159050919050565b50505050565b50505050565b60006127b48473ffffffffffffffffffffffffffffffffffffffff166129e8565b1561290d578373ffffffffffffffffffffffffffffffffffffffff1663150b7a026127dd611b66565b8786866040518563ffffffff1660e01b81526004016127ff9493929190614400565b6020604051808303816000875af192505050801561283b57506040513d601f19601f820116820180604052508101906128389190614461565b60015b6128bd573d806000811461286b576040519150601f19603f3d011682016040523d82523d6000602084013e612870565b606091505b5060008151036128b5576040517f08c379a00000000000000000000000000000000000000000000000000000000081526004016128ac9061438b565b60405180910390fd5b805181602001fd5b63150b7a0260e01b7bffffffffffffffffffffffffffffffffffffffffffffffffffffffff1916817bffffffffffffffffffffffffffffffffffffffffffffffffffffffff191614915050612912565b600190505b949350505050565b60606000600161292984612a0b565b01905060008167ffffffffffffffff811115612948576129476130d3565b5b6040519080825280601f01601f19166020018201604052801561297a5781602001600182028036833780820191505090505b509050600082602001820190505b6001156129dd578080600190039150507f3031323334353637383961626364656600000000000000000000000000000000600a86061a8153600a85816129d1576129d061448e565b5b04945060008503612988575b819350505050919050565b6000808273ffffffffffffffffffffffffffffffffffffffff163b119050919050565b600080600090507a184f03e93ff9f4daa797ed6e38ed64bf6a1f0100000000000000008310612a69577a184f03e93ff9f4daa797ed6e38ed64bf6a1f0100000000000000008381612a5f57612a5e61448e565b5b0492506040810190505b6d04ee2d6d415b85acef81000000008310612aa6576d04ee2d6d415b85acef81000000008381612a9c57612a9b61448e565b5b0492506020810190505b662386f26fc100008310612ad557662386f26fc100008381612acb57612aca61448e565b5b0492506010810190505b6305f5e1008310612afe576305f5e1008381612af457612af361448e565b5b0492506008810190505b6127108310612b23576127108381612b1957612b1861448e565b5b0492506004810190505b60648310612b465760648381612b3c57612b3b61448e565b5b0492506002810190505b600a8310612b55576001810190505b80915050919050565b6040518060a0016040528060008152602001600073ffffffffffffffffffffffffffffffffffffffff168152602001600073ffffffffffffffffffffffffffffffffffffffff168152602001600081526020016000151581525090565b6000604051905090565b600080fd5b600080fd5b60007fffffffff0000000000000000000000000000000000000000000000000000000082169050919050565b612c0481612bcf565b8114612c0f57600080fd5b50565b600081359050612c2181612bfb565b92915050565b600060208284031215612c3d57612c3c612bc5565b5b6000612c4b84828501612c12565b91505092915050565b60008115159050919050565b612c6981612c54565b82525050565b6000602082019050612c846000830184612c60565b92915050565b600081519050919050565b600082825260208201905092915050565b60005b83811015612cc4578082015181840152602081019050612ca9565b60008484015250505050565b6000601f19601f8301169050919050565b6000612cec82612c8a565b612cf68185612c95565b9350612d06818560208601612ca6565b612d0f81612cd0565b840191505092915050565b60006020820190508181036000830152612d348184612ce1565b905092915050565b6000819050919050565b612d4f81612d3c565b8114612d5a57600080fd5b50565b600081359050612d6c81612d46565b92915050565b600060208284031215612d8857612d87612bc5565b5b6000612d9684828501612d5d565b91505092915050565b600073ffffffffffffffffffffffffffffffffffffffff82169050919050565b6000612dca82612d9f565b9050919050565b612dda81612dbf565b82525050565b6000602082019050612df56000830184612dd1565b92915050565b612e0481612dbf565b8114612e0f57600080fd5b50565b600081359050612e2181612dfb565b92915050565b60008060408385031215612e3e57612e3d612bc5565b5b6000612e4c85828601612e12565b9250506020612e5d85828601612d5d565b9150509250929050565b612e7081612d3c565b82525050565b6000602082019050612e8b6000830184612e67565b92915050565b60008060408385031215612ea857612ea7612bc5565b5b6000612eb685828601612d5d565b9250506020612ec785828601612d5d565b9150509250929050565b600081519050919050565b600082825260208201905092915050565b6000819050602082019050919050565b612f0681612d3c565b82525050565b6000612f1782612d9f565b9050919050565b612f2781612f0c565b82525050565b612f3681612c54565b82525050565b60a082016000820151612f526000850182612efd565b506020820151612f656020850182612f1e565b506040820151612f786040850182612f1e565b506060820151612f8b6060850182612efd565b506080820151612f9e6080850182612f2d565b50505050565b6000612fb08383612f3c565b60a08301905092915050565b6000602082019050919050565b6000612fd482612ed1565b612fde8185612edc565b9350612fe983612eed565b8060005b8381101561301a5781516130018882612fa4565b975061300c83612fbc565b925050600181019050612fed565b5085935050505092915050565b600060208201905081810360008301526130418184612fc9565b905092915050565b60008060006060848603121561306257613061612bc5565b5b600061307086828701612e12565b935050602061308186828701612e12565b925050604061309286828701612d5d565b9150509250925092565b6000602082840312156130b2576130b1612bc5565b5b60006130c084828501612e12565b91505092915050565b600080fd5b600080fd5b7f4e487b7100000000000000000000000000000000000000000000000000000000600052604160045260246000fd5b61310b82612cd0565b810181811067ffffffffffffffff8211171561312a576131296130d3565b5b80604052505050565b600061313d612bbb565b90506131498282613102565b919050565b600067ffffffffffffffff821115613169576131686130d3565b5b61317282612cd0565b9050602081019050919050565b82818337600083830152505050565b60006131a161319c8461314e565b613133565b9050828152602081018484840111156131bd576131bc6130ce565b5b6131c884828561317f565b509392505050565b600082601f8301126131e5576131e46130c9565b5b81356131f584826020860161318e565b91505092915050565b6000806040838503121561321557613214612bc5565b5b600083013567ffffffffffffffff81111561323357613232612bca565b5b61323f858286016131d0565b925050602061325085828601612d5d565b9150509250929050565b61326381612c54565b811461326e57600080fd5b50565b6000813590506132808161325a565b92915050565b6000806040838503121561329d5761329c612bc5565b5b60006132ab85828601612e12565b92505060206132bc85828601613271565b9150509250929050565b600067ffffffffffffffff8211156132e1576132e06130d3565b5b6132ea82612cd0565b9050602081019050919050565b600061330a613305846132c6565b613133565b905082815260208101848484011115613326576133256130ce565b5b61333184828561317f565b509392505050565b600082601f83011261334e5761334d6130c9565b5b813561335e8482602086016132f7565b91505092915050565b6000806000806080858703121561338157613380612bc5565b5b600061338f87828801612e12565b94505060206133a087828801612e12565b93505060406133b187828801612d5d565b925050606085013567ffffffffffffffff8111156133d2576133d1612bca565b5b6133de87828801613339565b91505092959194509250565b6000806040838503121561340157613400612bc5565b5b600061340f85828601612e12565b925050602061342085828601612e12565b9150509250929050565b7f4e487b7100000000000000000000000000000000000000000000000000000000600052602260045260246000fd5b6000600282049050600182168061347157607f821691505b6020821081036134845761348361342a565b5b50919050565b7f4552433732313a20617070726f76616c20746f2063757272656e74206f776e6560008201527f7200000000000000000000000000000000000000000000000000000000000000602082015250565b60006134e6602183612c95565b91506134f18261348a565b604082019050919050565b60006020820190508181036000830152613515816134d9565b9050919050565b7f4552433732313a20617070726f76652063616c6c6572206973206e6f7420746f60008201527f6b656e206f776e6572206f7220617070726f76656420666f7220616c6c000000602082015250565b6000613578603d83612c95565b91506135838261351c565b604082019050919050565b600060208201905081810360008301526135a78161356b565b9050919050565b7f6f6e6c79206f776e6572206f66206974656d2063616e20706572666f726d207460008201527f686973206f7065726174696f6e00000000000000000000000000000000000000602082015250565b600061360a602d83612c95565b9150613615826135ae565b604082019050919050565b60006020820190508181036000830152613639816135fd565b9050919050565b7f5072696365206d75737420626520657175616c20746f206c697374696e67207060008201527f7269636500000000000000000000000000000000000000000000000000000000602082015250565b600061369c602483612c95565b91506136a782613640565b604082019050919050565b600060208201905081810360008301526136cb8161368f565b9050919050565b60006080820190506136e76000830187612dd1565b6136f46020830186612dd1565b6137016040830185612e67565b61370e6060830184612c60565b95945050505050565b7f4e487b7100000000000000000000000000000000000000000000000000000000600052601160045260246000fd5b600061375182612d3c565b915061375c83612d3c565b925082820190508082111561377457613773613717565b5b92915050565b600061378582612d3c565b91507fffffffffffffffffffffffffffffffffffffffffffffffffffffffffffffffff82036137b7576137b6613717565b5b600182019050919050565b7f4e487b7100000000000000000000000000000000000000000000000000000000600052603260045260246000fd5b7f4552433732313a2063616c6c6572206973206e6f7420746f6b656e206f776e6560008201527f72206f7220617070726f76656400000000000000000000000000000000000000602082015250565b600061384d602d83612c95565b9150613858826137f1565b604082019050919050565b6000602082019050818103600083015261387c81613840565b9050919050565b7f4552433732313a20696e76616c696420746f6b656e2049440000000000000000600082015250565b60006138b9601883612c95565b91506138c482613883565b602082019050919050565b600060208201905081810360008301526138e8816138ac565b9050919050565b7f4552433732313a2061646472657373207a65726f206973206e6f74206120766160008201527f6c6964206f776e65720000000000000000000000000000000000000000000000602082015250565b600061394b602983612c95565b9150613956826138ef565b604082019050919050565b6000602082019050818103600083015261397a8161393e565b9050919050565b7f546865205f746f6b656e55726c206d7573742062652068617665000000000000600082015250565b60006139b7601a83612c95565b91506139c282613981565b602082019050919050565b600060208201905081810360008301526139e6816139aa565b9050919050565b7f6f6e6c79206f776e6572206f6620746865206d61726b6574706c61636520636160008201527f6e206368616e676520746865206c697374696e67207072696365210000000000602082015250565b6000613a49603b83612c95565b9150613a54826139ed565b604082019050919050565b60006020820190508181036000830152613a7881613a3c565b9050919050565b7f4f6e6c79206d61726b6574706c616365206f776e6572732063616e207570646160008201527f746520746865206c697374696e67207072696365000000000000000000000000602082015250565b6000613adb603483612c95565b9150613ae682613a7f565b604082019050919050565b60006020820190508181036000830152613b0a81613ace565b9050919050565b600081905092915050565b6000613b2782612c8a565b613b318185613b11565b9350613b41818560208601612ca6565b80840191505092915050565b6000613b598285613b1c565b9150613b658284613b1c565b91508190509392505050565b6000613b7c82612d3c565b9150613b8783612d3c565b9250828203905081811115613b9f57613b9e613717565b5b92915050565b7f506c65617365207375626d6974207468652061736b696e67207072696365206960008201527f6e206f7264657220746f20636f6d706c65746520746865207075726368617365602082015250565b6000613c01604083612c95565b9150613c0c82613ba5565b604082019050919050565b60006020820190508181036000830152613c3081613bf4565b9050919050565b7f436f756e7465723a2064656372656d656e74206f766572666c6f770000000000600082015250565b6000613c6d601b83612c95565b9150613c7882613c37565b602082019050919050565b60006020820190508181036000830152613c9c81613c60565b9050919050565b7f4552433732313a207472616e736665722066726f6d20696e636f72726563742060008201527f6f776e6572000000000000000000000000000000000000000000000000000000602082015250565b6000613cff602583612c95565b9150613d0a82613ca3565b604082019050919050565b60006020820190508181036000830152613d2e81613cf2565b9050919050565b7f4552433732313a207472616e7366657220746f20746865207a65726f2061646460008201527f7265737300000000000000000000000000000000000000000000000000000000602082015250565b6000613d91602483612c95565b9150613d9c82613d35565b604082019050919050565b60006020820190508181036000830152613dc081613d84565b9050919050565b7f4552433732313a206d696e7420746f20746865207a65726f2061646472657373600082015250565b6000613dfd602083612c95565b9150613e0882613dc7565b602082019050919050565b60006020820190508181036000830152613e2c81613df0565b9050919050565b7f4552433732313a20746f6b656e20616c7265616479206d696e74656400000000600082015250565b6000613e69601c83612c95565b9150613e7482613e33565b602082019050919050565b60006020820190508181036000830152613e9881613e5c565b9050919050565b7f45524337323155524953746f726167653a2055524920736574206f66206e6f6e60008201527f6578697374656e7420746f6b656e000000000000000000000000000000000000602082015250565b6000613efb602e83612c95565b9150613f0682613e9f565b604082019050919050565b60006020820190508181036000830152613f2a81613eee565b9050919050565b60008190508160005260206000209050919050565b60006020601f8301049050919050565b600082821b905092915050565b600060088302613f937fffffffffffffffffffffffffffffffffffffffffffffffffffffffffffffffff82613f56565b613f9d8683613f56565b95508019841693508086168417925050509392505050565b6000819050919050565b6000613fda613fd5613fd084612d3c565b613fb5565b612d3c565b9050919050565b6000819050919050565b613ff483613fbf565b61400861400082613fe1565b848454613f63565b825550505050565b600090565b61401d614010565b614028818484613feb565b505050565b5b8181101561404c57614041600082614015565b60018101905061402e565b5050565b601f8211156140915761406281613f31565b61406b84613f46565b8101602085101561407a578190505b61408e61408685613f46565b83018261402d565b50505b505050565b600082821c905092915050565b60006140b460001984600802614096565b1980831691505092915050565b60006140cd83836140a3565b9150826002028217905092915050565b6140e682612c8a565b67ffffffffffffffff8111156140ff576140fe6130d3565b5b6141098254613459565b614114828285614050565b600060209050601f8311600181146141475760008415614135578287015190505b61413f85826140c1565b8655506141a7565b601f19841661415586613f31565b60005b8281101561417d57848901518255600182019150602085019450602081019050614158565b8683101561419a5784890151614196601f8916826140a3565b8355505b6001600288020188555050505b505050505050565b7f7072696365206d75737420626520616c206c6573742031000000000000000000600082015250565b60006141e5601783612c95565b91506141f0826141af565b602082019050919050565b60006020820190508181036000830152614214816141d8565b9050919050565b7f7072696365206d75737420626520657175616c20746f206c697374696e67507260008201527f6963650000000000000000000000000000000000000000000000000000000000602082015250565b6000614277602383612c95565b91506142828261421b565b604082019050919050565b600060208201905081810360008301526142a68161426a565b9050919050565b7f4552433732313a20617070726f766520746f2063616c6c657200000000000000600082015250565b60006142e3601983612c95565b91506142ee826142ad565b602082019050919050565b60006020820190508181036000830152614312816142d6565b9050919050565b7f4552433732313a207472616e7366657220746f206e6f6e20455243373231526560008201527f63656976657220696d706c656d656e7465720000000000000000000000000000602082015250565b6000614375603283612c95565b915061438082614319565b604082019050919050565b600060208201905081810360008301526143a481614368565b9050919050565b600081519050919050565b600082825260208201905092915050565b60006143d2826143ab565b6143dc81856143b6565b93506143ec818560208601612ca6565b6143f581612cd0565b840191505092915050565b60006080820190506144156000830187612dd1565b6144226020830186612dd1565b61442f6040830185612e67565b818103606083015261444181846143c7565b905095945050505050565b60008151905061445b81612bfb565b92915050565b60006020828403121561447757614476612bc5565b5b60006144858482850161444c565b91505092915050565b7f4e487b7100000000000000000000000000000000000000000000000000000000600052601260045260246000fdfea2646970667358221220f539406df7154695c9db9ad4bb1b57cf5d410662dfeb54f5a0a04fd531da014064736f6c63430008120033",
  "linkReferences": {},
  "deployedLinkReferences": {}
}